:020000040800F2
:10000000580D002055A50008D5A20008D7A2000869
:10001000D9A20008DBA20008DDA200080000000051
:10002000000000000000000000000000DFA2000847
:10003000E1A2000800000000E3A20008E5A2000819
:10004000F9A50008FDA5000801A6000805A60008FE
:1000500009A600080DA6000811A60008F1A20008D4
:10006000FBA2000805A300080FA3000815A60008BE
:1000700019A600081DA6000821A6000825A600084C
:1000800029A600082DA6000819A3000831A600081B
:1000900023A300082DA3000837A3000841A30008EC
:1000A00035A6000839A600083DA6000841A60008AC
:1000B00045A6000849A600084DA6000851A600085C
:1000C00055A6000859A600085DA6000861A600080C
:1000D00065A6000853A3000869A600086DA60008DD
:1000E0005DA3000871A6000875A6000879A600089F
:1000F0007DA6000881A6000885A6000889A600083C
:100100008DA6000891A6000895A6000899A60008EB
:100110009DA60008A1A60008A5A60008A9A600089B
:1001200069A30008ADA6000873A30008B1A60008E3
:10013000B5A60008B9A60008BDA60008C1A600081B
:10014000C5A60008C9A60008CDA60008D1A60008CB
:10015000D5A60008D9A600087DA30008DDA60008E2
:10016000E1A60008E5A60008E9A60008EDA600083B
:10017000F1A60008F5A60008F9A600080000000096
:10018000FDA6000801A7000800F5E0700268914292
:1001900003D343681A44914202D380680028F5D102
:1001A0007047DFF80817086890B94FF4805048602E
:1001B0004FF480324FF0FF30C86008610420DFF850
:1001C000F0368A604861C3F8BC01DFF8E8060860D1
:1001D0000120704701F1080313F0070F0EBF002341
:1001E000C3F1080303F007031944D21A8161C26006
:1001F00042F001034B60091D4FF0280C41F802C08A
:10020000DFF8A8261369C36170472DE9FC4B074648
:1002100001F1080010F0070F0FBF8946C0F1080078
:1002200000F0070001EB000902F1080111F0070FCF
:1002300006D002F10800C0F1080000F007000244F7
:100240001546A5EB090009EB0306A0EB030B43F0F1
:100250000303C9F80430AE4228BF00F055FF2879E7
:10026000C10758BF00F050FFBBF1100F38BF00F0BE
:100270004BFFB869854208D1F9688B44C7F80CB0C8
:10028000BE614BF00100706051E1786985420AD18E
:10029000B9688B44C7F808B07E614BF0010070600C
:1002A00046F80BB043E1686800F00301012940F013
:1002B000AC80C008C0000190C0081F2839D8AC68C5
:1002C000D5F80C800090454508BF00F01DFFA54201
:1002D00008BF00F019FF68680099C008C000B0EBC3
:1002E000C10F18BF00F010FF009907F1280000EBC4
:1002F000C100844206D039698C42C0F08180E26836
:10030000AA427DD1A04506D10098396801238340D7
:100310009943396076E0804506D0396988456FD3C6
:10032000D8F80800A8426BD1C4F80C80C8F808407F
:1003300068E0EC68D5F81880AC420CD0A868396940
:10034000884223D3C268AA4204BFA168A9421DD132
:10035000C460A0601CE005F114010C6834B905F11B
:1003600010010C68A4B101E011460C6804F11402FC
:100370001068002802BF04F1100210680028F3D1B1
:100380003869814202D300220A6001E000F0BCFE1D
:10039000B8F1000F36D0E96907F5987000EB8100DD
:1003A0000268954208D10460A4B9E869796801221D
:1003B00082409143796025E03869804508D3D8F8B8
:1003C0001010A94214BFC8F81440C8F8104001E04A
:1003D00000F09AFEB4B139698C4211D3C4F8188088
:1003E000286928B1884226BF2061846100F08CFE14
:1003F000686938B13969884202D36061846101E07B
:1004000000F082FE01996D188B4469684908490023
:1004100069604BF0010070604FEADB0446F80BB0F6
:100420001F2C23D807F1280000EBC4084546BBF178
:10043000100F38BF00F068FE386820FA04F1CA07D0
:1004400005D4012101FA04F404433C6007E0D8F824
:100450000800396988422CBF054600F055FEC8F8EF
:100460000860EE60B560C6F80C8060E05FEA1B20B3
:1004700008BF002123D0B0F5803F28BF1F211ED226
:10048000A0F58072120C02F008029040A0F5805195
:10049000090C01F004018840A0F580431B0CC2F157
:1004A0000E0203F00203521AD21A984002EBD03225
:1004B000D01D2BFA00F101F0010101EB4201F161C5
:1004C000002307F59872736102EB810033617A684B
:1004D00022FA01F3DC0707D4012303FA01F11143E7
:1004E00079600660B0611DE002681F291DBF4908E0
:1004F000C1F119010BFA01F1594600E002465068BA
:10050000C008C000584516D002F11003C80F03EB15
:100510008003490018680028F0D13869834204D369
:100520001E60B261F660B66001E000F0EDFD09F119
:100530000800BDE8F68B396990688A4228BF884276
:10054000F3D3C6609660B060F2600020B061EEE761
:100550002DE9FE4F04468B46A5692E4690469946E6
:100560003146FFF711FE0268416802EB010AAAF169
:10057000270111F007000EBF0021C1F1080101F0B1
:1005800007010AEB0100A0F12F0706F110018F42CD
:1005900038BF374607F11802002101920091A8F1F7
:1005A000280259462046FFF715FE07F1080010F013
:1005B000070F18BF00F0A8FD1B20786007F10801A5
:1005C00004F5E07090E80C5081E80C50C0F800B0E1
:1005D000C0F80480C0F80C9081600722019800994F
:1005E00000E0001D491C00F1080353454260F8D3A8
:1005F0000129D8BF00F088FDB74200F09580BF1BED
:10060000301D321DC15949084900D15147F0010040
:1006100070604FEAD70BF751BBF11F0F21D804EBE5
:10062000CB0000F12805A846102F38BF00F06CFD64
:10063000206820FA0BF1CA0705D4012101FA0BF159
:100640000843206006E0A868216988422CBF8046E4
:1006500000F05AFDAE60C8F80C60C6F80880F5607E
:100660006FE0380A08BF002123D0B0F5803F28BFD3
:100670001F211ED2A0F58072120C02F008029040D9
:10068000A0F58051090C01F004018840A0F58043D9
:100690001B0CC2F10E0203F00203521AD21A984048
:1006A00002EBD032D01D27FA00F101F0010101EB7D
:1006B000420104EB8102002302F59870F16173613D
:1006C0003361626822FA01F3DB0707D4012303FADE
:1006D00001F1114361600660B0611DE002681F29ED
:1006E0001DBF4908C1F1190107FA01F1394600E0BF
:1006F00002465068C008C000B84216D002F110038C
:10070000C80F03EB8003490018680028F0D1206966
:10071000834204D31E60B261F660B56011E003B09D
:10072000BDE8F04F00F0F0BC0BE0216990688A4210
:1007300028BF8842F3D3C6609560B060F2600020A5
:10074000B06103B0BDE8F08F2DE9F041574F054689
:100750003868884608B9FFF724FDB96801EB08003E
:100760002F30491E20EA010188457DD205F5D87653
:10077000B06828B1326889188A4275D2884273D32A
:1007800000F002FD01001CBF0C6811F1010F6BD0DD
:100790003068201805F5D87230605368984238BF29
:1007A00018467060A86960BB286908B1814200D210
:1007B0002961316174610020F0614FF0FF303A68C7
:1007C0006A62286205F128020020D260926002F17C
:1007D000080757611761801C10322028F5D3344870
:1007E000854208BFA4F1280228D055F8040CC0089F
:1007F00005EBC002A2F108000A19121A283A0146B4
:100800001CE005F5E070024600E092687AB31368D8
:1008100057681F44B942F8D1137B1F0727D4AB692F
:100820001768BB4223D3D2F804C06744BB421ED230
:10083000A444C2F804C0E868A96922182846FFF752
:10084000C9FC1FE08068C0B103689342FAD1027B03
:10085000130712D4026801604368E41844604346F9
:100860002846BDE8F041D0E40020BDE8F0812A69C7
:10087000914238BF29610A19E5E70023224628463C
:10088000FFF766FEE8688045EED2A0EB0800A96994
:10089000E86001EB0802AA6140F00100506048F0F6
:1008A0000300486001F10800BDE8F08174080020F1
:1008B000C00000206859883C2DE9F84F0025894682
:1008C000090AC9F1000B08BF002323D0B1F5803F0E
:1008D00028BF1F231ED2A1F58072120C02F008025D
:1008E0009140A1F580531B0C03F004039940A1F53E
:1008F0008044240CC2F10E0204F00204D21A121B2E
:10090000A14002EBD132D11D29FA01F303F001031A
:1009100003EB4203074607F5987858F8230030B3F5
:100920001F2B0FBF4C465C08C4F1190409FA04F4EC
:10093000AC46594600E064004268D208D200A2EBFF
:1009400009028A4203D21100054600F0698142691A
:1009500010304FEAD47B50F82B00002A1CBF824293
:1009600094460028E7D18B466046B0BBBDBB012250
:1009700002FA03F35B005842796803430B4000F02E
:100980004E81584203405B1E180B00F01000C3401C
:10099000590901F00801CB409A0802F00402D34043
:1009A0005C0804F002040818E3401018C3F3400682
:1009B00020183044F3401B1858F823000DE0084677
:1009C0004168C908C900A1EB090159453CBF8B46E4
:1009D000054601690029F2D140690028F0D1002DB7
:1009E00000F01D81B868A0EB0900834580F01781F5
:1009F00039698D42C0F011816868C008C00009EBF8
:100A00000B01884218BF00F07FFB05EB0906B542D9
:100A100080F00381EC68D5F818A0AC420CD0A8682F
:100A20003969884223D3C268AA4204BFA168A94297
:100A30001DD1C460A0601CE005F114010C6834B93C
:100A400005F110010C68A4B101E011460C6804F135
:100A500014021068002802BF04F110021068002878
:100A6000F3D13869814202D300220A6001E000F02C
:100A70004BFBBAF1000F36D0E86908EB8000016843
:100A80008D4209D10460200014D1E86979680122FF
:100A900082409143796026E03869824508D3DAF8CC
:100AA0001010A94214BFCAF81440CAF8104001E05F
:100AB00000F02AFBBCB13869844212D3C4F818A0F4
:100AC000286930B13969884226BF2061846100F00D
:100AD0001BFB686938B13969884202D3606184615F
:100AE00001E000F011FBBBF1100F0CD2D94449F02A
:100AF0000300291D6860281D51F8092042F00102F9
:100B000040F8092088E049F0030068604BF00100DC
:100B100070604FEADB0046F80BB01F281DD807EBCA
:100B2000C00101F12804396821FA00F2D307A34675
:100B300005D4012202FA00F00843386006E0A068FC
:100B4000396988422CBF834600F0DEFAA660CBF8F4
:100B50000C60C6F808B0F4605EE05FEA1B2008BFD6
:100B6000002123D0B0F5803F28BF1F211ED2A0F561
:100B70008072120C02F008029040A0F58051090C1E
:100B800001F004018840A0F580431B0CC2F10E0265
:100B900003F00203521AD21A984002EBD032D01D51
:100BA0002BFA00F101F0010101EB4201F161002299
:100BB0007261326108EB81007A6822FA01F4E3077E
:100BC00007D4012404FA01F1114379600660B06191
:100BD0001DE002681F291DBF4908C1F119010BFA68
:100BE00001F1594600E002465068C008C00058456F
:100BF00018D002F11003C80F03EB800349001868F6
:100C00000028F0D13869834204D31E60B261F660D7
:100C1000B66001E000F078FA14E100F075FA0EE138
:100C20008B46A2E6396990688A4228BF8842F1D390
:100C3000C6609660B060F2600020B061ECE72DE91C
:100C4000F84F06468846716848420140491E080B25
:100C500000F01000C1404A0902F00802D1408B08A0
:100C600003F00403D9404D0805F002051018E940CF
:100C70001818C1F34004281806F5987A2044E1407A
:100C800009185AF821104868C008C0000D46A0EBAA
:100C9000080909E001464868C008C000A0EB080048
:100CA00048453CBF81460D4608690028F2D1496994
:100CB0000029F0D130698542C0F0BF806968C90859
:100CC00008EB090BC900594518BF00F01DFA05EBE8
:100CD00008008542009080F0B080EF68AC69AF42B8
:100CE0000CD0A8683169884223D3C268AA4204BFE5
:100CF000B968A9421DD1C760B8601CE005F11401B4
:100D00000F6837B905F110010F68A7B101E011466E
:100D10000F6807F114021068002802BF07F11002E3
:100D200010680028F3D13069814202D300220A60A2
:100D300001E000F0E9F9002C31D0E8690AEB80000D
:100D400001688D4208D107608FB9E8697168012296
:100D500082409143716022E03069844205D3216969
:100D6000A94214BF6761276101E000F0CDF9B7B176
:100D70003069874211D3BC61286930B1316988423A
:100D800026BF3861876100F0BFF9686938B1316901
:100D9000884202D37861876101E000F0B5F9B9F1CA
:100DA000100F0BD24BF00300291D6860281D51F86D
:100DB0000B2042F0010240F80B203DE048F0030117
:100DC0002A1D696049F0010042F80800009941F8C5
:100DD0000990D6F808804FEAD80BBBF1200F28BF46
:100DE00000F092F9B8F1000F22D006EBCB00776942
:100DF00000F12804A246B8F1100F38BF00F084F9C2
:100E0000306820FA0BF1CA0705D4012101FA0BF171
:100E10000843306006E0A068316988422CBF8246F2
:100E200000F072F9A760CAF80C70C7F808A0FC605F
:100E3000C6F808900098706104E000F065F90020A1
:100E4000BDE8F28F05F10800BDE8F28F2DE9FE4FF5
:100E50000546AFF30080F52DDFF8A86280F004812D
:100E60000B2D31BF10250B35ED08ED003068EC0877
:100E7000E04010F0030F46D0C04300F00100041919
:100E800006F1280000EBC408E700D8F808506868AD
:100E9000C008C000B84218BF00F036F9D5F8089075
:100EA000454508BF00F030F94D4508BF00F02CF96A
:100EB0006868C008C000B84218BF00F025F9C845EE
:100EC00007D13068012101FA04F420EA04043460F7
:100ED0000DE03069814508D3D9F80C10A94204D13E
:100EE000C8F80890C9F80C8001E000F00DF947F04F
:100EF0000300291D6860281DCA5942F00102C25131
:100F000005F10804F8E0B168A94280F0BE8000282D
:100F100000F0A1804FF0010808FA04F1490000FA3E
:100F200004F4484201430C4060420440641E200B1C
:100F300000F01000C440610901F00801CC40A20893
:100F400002F00402D440630803F002030818DC40F6
:100F50001018C4F3400718183818FC40241806F17C
:100F6000280000EBC40AE700DAF80890D9F804007A
:100F7000C008C000B84218BF00F0C6F8D9F808B0E1
:100F8000D14508BF00F0C0F8D94508BF00F0BCF853
:100F9000D9F80400C008C000B84218BF00F0B4F887
:100FA000DA4506D1306808FA04F420EA0404346013
:100FB0000DE031698B4508D3DBF80C00484504D1BE
:100FC000CAF808B0CBF80CA001E000F09DF87F1B38
:100FD00045F0030009F10402C9F8040047F00101DB
:100FE000515109EB05020192D751B4684FEAD40A76
:100FF000BAF1200F28BF00F087F834B3CDF800A075
:1010000006F12800756900EBCA0AD346102C38BFD8
:1010100000F07AF83168009821FA00F2D30704D47E
:1010200008FA00F00843306007E0DAF80800316998
:1010300088422CBF834600F067F8CAF80850CBF806
:101040000C50C5F808B0C5F80CA0B76009F1080449
:101050000198706150E07068C0B329463046FFF7D0
:10106000EEFD040011D047E015F1400F28BF4FF00E
:10107000FF350AD20B35ED087068ED0028B129461E
:101080003046FFF719FC040036D1B068A8421DD3E2
:10109000411B726910290AD350197061B16041F087
:1010A00001034360415045F0030555600BE000210A
:1010B000B1607161131D40F003015160111D1C5896
:1010C00044F001040C5002F1080415E0F068854278
:1010D0000DD2401BB169F0604A19B26140F00100C5
:1010E000506045F003054D6001F1080404E0294615
:1010F0003046FFF729FB0446AFF300802046FFF798
:1011000020BB0000C0000020012000F053B8F0B464
:101110000246106895681318506803EB5004C00726
:101120001DD54D441BE013F8017B05F8017B491EDA
:10113000F9D1A0B1B60813F8011B06F00306032E7F
:1011400008BF13F8016B01EB06214942801C2944BA
:1011500005D011F8016B05F8016B401EF9D1A342CF
:101160000ED013F8016B16F0030104BF13F8011B36
:10117000C91C30090F28DAD113F8010B0F30D6E75C
:10118000F0BC02F10C0070470749086808B1002064
:1011900070470648C008C00008600549C908C90072
:1011A000091A0160704700BF400900205F0D002050
:1011B000580F002080B5AFF30080024A11001820BC
:1011C000ABBEFBE7260002002DE9F04F0FF2A41C96
:1011D000A1B0DCE90089CDE900892A9DDFF8109CE7
:1011E000049100248DF843500D944FF0FF3882464F
:1011F00016461F460FE0B3462C461BF8011B049809
:10120000D0470028049000F0A2800D98401C641E76
:101210000D90F2D176193078252808D100210022CE
:101220000791089209910A920B910C920DE06A467F
:101230004146304600F0D4FF050001D10D98A1E0F1
:10124000D9D50125E6E741F0010116F8010F202864
:10125000F9D023280CD02B2804D02D2805D03028F5
:1012600009D076E041F00201EFE741F00401ECE73C
:1012700041F00801E9E741F01001E6E70F9209E0CB
:101280000F98484505DA00EB800402EB4402303A3F
:101290000F92761C3278A2F130000A28F0D3307811
:1012A0002E2818BFCDF8388022D116F8010F2A2831
:1012B00007D138683860761C50F8042B38600E92DD
:1012C00016E02D280CBF761C002000220E920AE0AA
:1012D00040B90E9A4A4505DA02EB820403EB440357
:1012E000303B0E93761C3378A3F130020A2AEFD3F9
:1012F000ADF8401021A0317800F07CFF08B116F85D
:10130000010B8DF842009DF84200682804D1307826
:1013100068280AD1622105E06C2804BF30786C2867
:1013200003D171218DF84210761C12A806903A461E
:1013300016F8013B02A9504600F064F838B912AA29
:1013400002A9504600F0CAF900287FF564AF404674
:1013500018E02A2892D13A683A6052F8040B3A60B1
:1013600000280F9003D540420F9041F00401761CF5
:1013700095E700000000000000000000686A6C743F
:101380007A4C000021B0BDE8F08F622820D0682898
:1013900011D06A2803D06C2827D0712825D108687D
:1013A000C01D20F007000860D0E900230830086065
:1013B000194610467047002A0A680A60106803D070
:1013C000121D0A6000B217E0121D0A6080B217E019
:1013D000002A0A680A60106803D0121D0A6040B231
:1013E0000AE0121D0A60C0B20AE0002A0A680A6018
:1013F000106803D0121D0A60C1177047121D0A60E1
:10140000002170477CB50D4611461C462E69B4F18B
:10141000250200F051811C3A00F08680121F022A3A
:1014200040F282800E3A00F00B81521F5AD0093AE6
:101430007AD0921E16D0521E35D0521E022A73D96F
:10144000121F30D0521F00F09A80521E4AD0521EF6
:1014500000F0E480D21E00F00181921E42D0D21E24
:1014600040D02FE195F83A406C2C09D06869421CB5
:101470006A610A680A6052F8043B0A6033542BE13F
:101480000A680A6052F8043B0A6000930022019245
:101490004FF0FF332B636A46294600F09AF9002883
:1014A00040F11A8105E195F83A000122FFF76DFF3E
:1014B000C5E900010023994204DA6869411C6961A9
:1014C0002D220DE0288F810704D56869411C6961D0
:1014D0002B2205E0C00722D56869411C69612022E2
:1014E00032541CE095F83A000022FFF74EFFC5E9A0
:1014F000000195F83800010711D5D5E90023002037
:10150000834208BF82420AD044F02000782806D1E6
:10151000686930213154401C421C6A6134542146B0
:1015200068693044E86087E00868C01D20F0070063
:101530000860D0E9002308300860C5E90023D5E938
:101540000001C80F04D06869411C69612D220DE0BB
:10155000288F810704D56869411C69612B2205E049
:10156000C00704D56869411C69612022325468694A
:101570003044E8602146284600F03AFAACE005F134
:101580003A02507820B14FF0FF340FF6343074E057
:101590001078622808D0682824D06A2812D06C28D5
:1015A0002ED071280ED02BE00A680A6052F8040B86
:1015B0000A6020B94FF0FF340FF61C305DE0E96A95
:1015C000017089E00A680A6052F8040B0A6020B9C9
:1015D0004FF0FF340FF600304FE0EA6AD317C0E94E
:1015E000002379E00A680A6052F8040B0A6020B907
:1015F0004FF0FF340FF6E0203FE0E96A01806BE036
:101600000A680A6052F8040B0A6020B94FF0FF34F0
:101610000FF6C42031E0E96A01605DE00A680A6003
:1016200052F8040B0A60002120F0000221F0FF3381
:10163000C5E90023EE607821284600F02DF94BE043
:101640006C2285F83A200B680B6053F8042B0B6072
:1016500052BB4FF0FF340FF6B4200EE095F83A205D
:101660006C2AF0D00868086050F8044B0860EC6001
:101670003CB94FF0FF340FF6782000F0D5FD201A6A
:1016800076BD2E6B002E04D5204600F0EDFD0446FD
:1016900008E032460021204600F00EFE002814BF6C
:1016A000041B3446AC6117E0294600F092F800288C
:1016B00012D54FF0FF3076BD6869411C6961252263
:1016C000325409E06969481C68612522725421007E
:1016D00002D0431C6B613454002076BD2DE9F041EB
:1016E0000E4605469046726B7069316AB46A121AEA
:1016F000B069521A716A121AF069521A121A96F8DF
:101700003800141B41070DD4002C0BDD2746B068B0
:101710002021A8470028B06057D0F06A401C7F1EE7
:10172000F062F4D1736942463146284600F0B0FCBD
:1017300000284AD1376A002F0ADDB0683021A84757
:101740000028B06041D0F06A401C7F1EF062F4D1E6
:10175000B369F2683146284600F09AFCA8BB776A64
:10176000002F09DDB0683021A847B06068B3F06A87
:10177000401C7F1EF062F5D1F068B169F369421830
:101780003146284600F084FCF8B9B76A002F09DD1D
:10179000B0683021A847B060B8B1F06A401C7F1E25
:1017A000F062F5D196F8380041070BD5002C09DD21
:1017B000B0682021A847B06038B1F06A401C641EB0
:1017C000F062F5D10020BDE8F0814FF0FF30BDE8B8
:1017D000F0812DE9F8470D46A3B02F6B002F064688
:1017E000904648BF6FF000470FF63C1400F090FDA4
:1017F000D4E90023696B4018CDE90123812828BF73
:101800004FF0FF3042D20024002F33DDD8F8001013
:1018100001AA684600F0E6FC8146B9F1000F38D411
:10182000D8F8000010B9B9F1010932D44F4521DBD5
:101830006869484481280AD30021696303AA2946BC
:101840003046FFF74BFF040014D40020686103AB5F
:10185000D5F814A04A46694603EB0A0000F05EFD85
:10186000CA44C5F814A058F8040B002818BFA7EB09
:101870000907C9D14CB903AA29463046FFF72EFF04
:10188000044614B9002068616863204624B0BDE8AE
:10189000F0874FF0FF34F8E72DE9FC4707468C4608
:1018A0003E69BCF16F0F08BF082405D04CF0200042
:1018B000782814BF0A2410243C25D7E90023BCF162
:1018C000640F18BFBCF1690F9046994606D10021FC
:1018D0008B4203DAD8F1000869EB49094FF0000A9E
:1018E000D14508BFD0451FD1386BE8B9082C4BD182
:1018F00097F83800010747D530203B2586F83B0094
:1019000042E000280ED597F8380000F014001028A7
:1019100008D17B6B7969386A5B1A1B1A9A1A002AFC
:10192000C8BF3A62BDE8F3878DF800C0404649461B
:101930002246E31700F046FD3032D0B26D1E3A2841
:10194000019504DB9DF80000A0F151018A18725541
:10195000404649462246E31700F034FD894680465A
:10196000D14508BFD04503D0F86871198842DDD34E
:10197000082C09D197F83800010705D5705D30288B
:1019800002D06D1E30207055C5F13C02BA6171194C
:10199000F960386B8242B4DA821A3A624FF6EF701D
:1019A000398F01403987BDE8F3872DE9D0430646DA
:1019B0000F4614464FF00008DFF8389412E0E007B5
:1019C00007D542464B463046394600F013FE0646E0
:1019D0000F464046494642464B4600F00BFE641017
:1019E00080468946002CEAD130463946BDE8D0838E
:1019F0002DE9F34F054641F020048DB0D5E900896B
:101A0000612C02AE09D0286B002848BF062003D401
:101A100008BF672C01D101202863D5E900235800B5
:101A20004015401C0ED119030CD00320A8619DF86D
:101A3000381061391A2902D20FF2F46111E00FF265
:101A4000F4610EE059004915491C0FD118030DD15E
:101A50000320A8619DF8381061391A2914D30FF2B8
:101A6000DC61E868032200F059FCD3E1194621F05B
:101A70000043B3F5801F10460DD20027BB4208BFBC
:101A8000BA42019703D111E00FF2AC61E9E701AA74
:101A900000F082FE0AE0DFF8607307EB1352DFF814
:101AA0005C3301921940DFF858331943C5E900014E
:101AB000612C0ED1E86830210170821CEA609DF82B
:101AC000381061290CBF7821582141706869801C49
:101AD0006861D5E900AB2BF0004300202AF000023A
:101AE000834204BF8242002300F05B81612C40F0FE
:101AF000AA80286B002847BF21210091401C00903C
:101B0000009F7F1C404649460022002300F07CFED7
:101B1000D94601998DF8082038BF89F00049091F7E
:101B2000002FD04601910DF1090040F34981B349DE
:101B3000DFF8D0B20C910646404649460022002309
:101B400000F07AFE80F03B814800400D00F11C025D
:101B500011D0002A0FDD40F2FF70824205DB09F050
:101B6000004040EA0B01002013E00C98014041EADC
:101B7000025140460DE029F00043002028F0000209
:101B8000834208BF82420FBF40461C22404600F0FD
:101B90006BFE8046894600F005FFFF1F002F0446BC
:101BA00009DD00F01DFF02460B464046494600F0A5
:101BB00029FF80468946F01D072104E004F00F024A
:101BC00000F8012D2411002C01DD491EF6D5491E17
:101BD0005CBF002200F8012DF9D5ECE00020194689
:101BE00002AA0A4400E05B1E12F80149491E844221
:101BF000F9D00F2804D10DF10900425C521C425467
:101C0000002904D50198001D02AE5B1C0190591EED
:101C100012D49DF838007218A0F13A07147804F134
:101C200030085FFA88F43A2CA8BFB844491E02F87D
:101C30000189F3D58DF83800286B002840F1B08079
:101C4000591E2963ACE0404649460022002300F0BB
:101C5000DBFD019938BF89F0004947F297504143B5
:101C6000694A91FBF2F20192D2F1070204DD40468B
:101C70004946FFF79AFE0AE0524200206349FFF707
:101C800094FE02460B464046494600F02DFF804632
:101C9000662C286BDFF878B106BF019F0A3706274C
:101CA0003F18142FC8BF142730208DF8080089462C
:101CB0000DF1090000E03046002F34DD06464046B5
:101CC000494601F035F801460A4606F108030420AA
:101CD0000A26B2FBF6F606EB860EA2EB4E02303277
:101CE00003F8012C0A22B6FBF2F202EB820EA6EBFD
:101CF0004E063036401E03F8026DE9D1083F002F32
:101D000003F10806D7DD084601F026F802460B4627
:101D10004046494600F076FE00225B4600F06AFC31
:101D200080468946CBE70DF10901401A0DF10906FD
:101D300004E00199491E401E0191761C317830293A
:101D4000F7D0662C02D10199491C03E0652C0CBF29
:101D5000012100212B6BCB189842B8BF431E002BEA
:101D60001ED4834204DAF05C3528A8BF392000DA9B
:101D700030201946721E02EB010800E05B1E18F8C5
:101D80000199491E8145F9D0392802D1705C401C67
:101D90007054002904D50198401C16465B1C019024
:101DA000019800B200901BB29DF8381032462846C8
:101DB00000F034F82EE0C61D002F3FF7BDAE3046D0
:101DC0000DF10901401A009903468842C8BF0B462D
:101DD000002B0DF109063FF52FAF8342BFF6FEAE93
:101DE0000DF10900C15C07297FF7F8AE0F20F6E678
:101DF000CBCCCC0C0000244002FCFFFFFFFF0F8087
:101E00000000E03F0000F07FA08601000000F03FEE
:101E100084D797410FB0BDE8F08F00002DE9F84757
:101E200083B006468A461746984600F0DDF9B8F1B9
:101E3000000F406A356B90F8009002DC4FF001080B
:101E4000BFA74AF02000BDF93040662808BF641CD7
:101E500015D0672840F0848014F1040FC0F286800A
:101E6000AC4280F2838096F83800641C010702D4EB
:101E7000A845B8BF454620B22D1A48BF00250FFA25
:101E800084FAF068B169BAF1000F25DC4A1C3023EE
:101E90004354002D03DC96F83800010703D5F068A1
:101EA00000F80290521C15EB0A0FB8BF6C4220B22A
:101EB000441941424445B8BFA046B26171620FFA6D
:101EC00088F5F561F068B3692A463946184400F090
:101ED00025FA641BB462C4E022B29045084417DAC4
:101EE0004246394600F01AFAB0694044B061AAEBA4
:101EF0000801002D716203DC96F838100A0705D539
:101F0000F16801F80090F069401CF061B562A8E04A
:101F1000394600F003FAB069002D5044A8EB0408DC
:101F200003DC96F838100A0703D5F16801F8009031
:101F3000401CB0610FFA88F08542F368B069B8BF01
:101F4000A8460FFA88F207EB0A01184400F0E6F9F8
:101F5000B1690FFA88F00144B161281A706280E01B
:101F6000BAF1610F14D14FF0700A16E0A84504DAF7
:101F700096F838100A0758BF45466D1E48BF002521
:101F8000BAF1670F14BF4FF0450A4FF0650A04E03D
:101F9000BAF1410F08BF4FF0500AB169F368481C0D
:101FA000B061002D17F8012B5A5403DC96F8381055
:101FB0000A071BD5F168431CB36101F80090002D9E
:101FC00014DDA8F101080FFA88F039468542F76858
:101FD000B8BFA8460FFA88F2F81800F09FF9B06968
:101FE0000FFA88F108446D1AB0617562F068B16942
:101FF0000844002C80F800A003D42B224270811CDE
:1020000003E02D2141706442811C00206A460AE0F1
:1020100023460A2493FBF4F404EB8405A3EB450365
:1020200002F8013B401C24B2002CF1DC012806DC44
:102030004AF02002652A04BF302201F8012B48B97A
:10204000302001F8010B07E0401E1DF8003030334E
:1020500001F8013B0028F7DCF268B0691044091A66
:10206000F16196F8380000F0140010280DD1726963
:10207000B169706A8A18F1698218B06A8A18821880
:10208000706B8242BCBF821A326204B0BDE8F08736
:10209000F8B505460E4617461C46002074B117F8E1
:1020A000011BB068A847B06030B1F06A401CF06214
:1020B0000020641EF3D1F2BD4FF0FF30F2BD0000EE
:1020C0007072696E74665F733A20256E206469735E
:1020D000616C6C6F776564007072696E74663A202B
:1020E00062616420256E20617267756D656E740093
:1020F0007072696E74665F733A2062616420257342
:1021000020617267756D656E740000007072696E93
:1021100074665F733A2062616420256C732061727B
:1021200067756D656E74000000000000000000001F
:102130006E616E004E414E00696E6600494E46006B
:10214000300030B4002513E050F8042BD30744BF0F
:10215000A9F101039A18091F042942F8045BFAD275
:1021600013468C0744BF15809B1CC90748BF1D70D0
:1021700050F8041B0029E7D130BC70471B4870475A
:1021800070B45368D418042B09DA41B1057804F807
:10219000015B10F8016B16B15B1C491EF3E753603D
:1021A00070BC704738B514461D4661B1FFF7E8FFB3
:1021B00061686A6B204690476FF00102811A02D075
:1021C000491E01D001E003E005E00021616032BD5D
:1021D0006FF0010032BD4FF0FF3032BDDA6B1047B7
:1021E000024BDFE7014BF9E701487047740000201C
:1021F0003C0000200278C9B28A421AB11CBF10F814
:10220000012FF9E718BF00207047B1F5807F02D396
:102210004FF0FF3070470170012070470078401E7A
:102220008041C043C00F704780B500B906A0054982
:102230000B681BB122220021984701E0FEF764FFE2
:10224000222002BD3C090020636F6E7374726169C5
:102250006E742068616E646C65723A2062616420FD
:102260006D6573736167650000F10103810704D038
:1022700010F8011B820781B1FAD10268A2F1013185
:10228000914311F0803104BF50F8042FF6E709BAEA
:10229000B1FA81F100EBD100401CC01A704782688E
:1022A000521C8260426832B10268531C0360117094
:1022B0004168491E41607047C9B2830706D0521E6B
:1022C00022D310F8013B9942F7D11FE0083A13D30B
:1022D00002F1040241EA012141EA014150F8043BC4
:1022E000121F21BF4B40A3F1013C2CEA030C1CF050
:1022F000803FF3D0C9B2001F083210F8013B521ED4
:1023000028BF91EA030FF8D818BF0120401E70477C
:1023100080B5FFF733FF006C02BD000062B38B078E
:1023200008D0521E11F8013B00F8013B00F0248058
:102330008B07F6D1830740F0208000BF103A07D307
:1023400030B4B1E83810103AA0E83810F9D230BCF7
:10235000530724BFB1E80810A0E8081044BF51F8A3
:10236000043B40F8043BD20724BF31F8022B20F88D
:10237000022B44BF0B7803707047121F17D35B000A
:1023800009D151F8043B20F8023B1B0C121F20F826
:10239000023BF6D20BE051F8043B00F8013B1B0A6C
:1023A00020F8023B1B0C121F00F8013BF3D238BF90
:1023B000121D521E24BF11F8013B00F8013BF8D852
:1023C00070470000BBBBE1B1B2F5803F80F07E807A
:1023D000022A1ED98C46B1FBF2F102FB11C31B0489
:1023E00043EA1043B3FBF2FC02FB1C3380B240EA29
:1023F0000343B3FBF2F002FB103240EA0C4000232F
:102400007047022A05D98446B0FBF2F002FB10C2E5
:1024100070474AB105D100F0010249085FEA300077
:10242000704700220023704700F0A4BC0B0002009C
:10243000002100207047904271EB030CF6D3B3F5F6
:10244000803F2FD2F0B5B3FA83F7B1FA81F4A7F148
:102450000F0E3D1B5340CEF1200602FA0EF2F3415F
:102460005340B5F10F0746D80F3C2C444140C4F10E
:102470002006A040F1414140B1FBF3F603FB1611E9
:10248000A2FB0645001BA94102D2761E80185941C5
:1024900080EA010221FA0EF362FA0EF200215A409C
:1024A0003046F0BD30B4B1FBF3FC03FB1C11A2FBC2
:1024B0000C45001BA94103D2ACF1010C8018594115
:1024C00030BC02460B46604600217047B2F1807F67
:1024D00065D3F0B5B2FA82F7B1FA81F4C7F10F060D
:1024E0003D1B22FA06F307F1110EF24120355A4046
:1024F000B5F10F07B8D94140C4F12006A040F14121
:102500004140B1FBF3FC03FB1C11A2FB0C45001B7B
:10251000A94103D2BCF1010C801859410F2F12D3ED
:102520000F3FC90341EA5041B1FBF3F603FB16111B
:10253000A2FB0645D4EBC030A94102D2761E80181A
:10254000594146EACC3C07B34140C7F12006B840A8
:10255000F1414140B1FBF3F603FB1611A2FB064526
:10256000001BA94102D2761E8018594180EA01025F
:1025700021FA0EF3C7F1200462FA0EF20CFA07F00A
:102580005A402CFA04F13043F0BD80EA010221FAEE
:102590000EF3002162FA0EF260465A40F0BD8C46FE
:1025A000B1FBF2F102FB11C31B0243EA1063B3FB60
:1025B000F2FC02FB1C331B024CEA002043EA1063CE
:1025C000B3FBF2FC02FB1C331B024CEA002043EA83
:1025D0001063B3FBF2FC02FB1C331B024CEA00202D
:1025E00043EA1063B3FBF2FC02FB1C324CEA00200E
:1025F00000237047B0B581EA030C0CF0004C40F2A8
:10260000FF7515EA11541DBF15EA1357AC42AF42CE
:1026100039E0E41923EA455343F48013C90241F039
:10262000004141EA505EC7021100A7FB02020028E8
:102630004FF00000EEFB01204FF00001E3FB07210B
:1026400018BF42F00102401800214941E3FB0E018E
:10265000A4F580640F0302D252004041494154F175
:1026600001046CDD470872F1004250F1000051EBAB
:102670000451A1F580115CBF41EA0C01B0BD4CEAE8
:1026800005510020B0BD05EA1357AC4214BFAF425C
:1026900041E050EA410E1CBF52EA430E02E061469F
:1026A0000020B0BD24423C441BD15FEA070EF6D0A7
:1026B000090302BF01460020AEF1140EB1FA81F702
:1026C000AEEB070401FA07FE0C37C7F1200100FA50
:1026D00007F7C8404EEA000E23EA455343F480133F
:1026E000A2E733F00043B3FA83F704BFB2FA82FEE5
:1026F00077440B3FE41BB7F1200E2FBF02FA0EF315
:10270000BB40C7F1200E22FA0EFE38BF43EA0E038B
:10271000BA40641C82E750EA410E14BF52EA430EED
:102720006FF000014FF4001717EB430F8ABF1946F3
:1027300017EB410FB5E74CEA05510020B0BDD4F1CD
:102740000104B4F120070FDAC4F12007520828BFB2
:1027500042F0010210FA07F501FA07F7E1BF2A4338
:10276000E0403843E1400FE0352C98DCC7F120040D
:1027700052EA400220FA07F218BF42F0010231FA91
:1027800007F0A1400A43002172F1004250F100001D
:1027900051EB0C01B0BD000010B5144600F002F87A
:1027A000226010BDC1F30A5343B14A0012F5001F65
:1027B00028D2A3F2FE32A1EB0251704750EA410C3D
:1027C00020D001F0004C31EA0C01B1FA81F204BFD3
:1027D000B0FA80F3D2180B3AB2F120032CBF00FA02
:1027E00003F1914041EA0C013EBFC2F1200C20FAF6
:1027F0000CF319439040524240F2FD33D21A01EBE0
:1028000003517047002270474FF4001C1CEB410F2E
:1028100094BF1CEB430F09E041EA030C50EA4C0C57
:1028200052EA0C0C03D2994208BF9042704714BF81
:102830008B428242704700004FF4001C1CEB410F9A
:1028400094BF1CEB430F09E041EA030C50EA4C0C27
:1028500052EA0C0C03D28B4208BF8242704714BF6D
:102860009942904270470000124254D440F2FF7CDB
:102870001CEA11530FD0634531D09B1863453CBF10
:1028800001EB0251704701F0004141EA0C51002078
:10289000AFF30080704750EA410320D001F0004CB4
:1028A00091EA0C011CD0B1FA81F30B3B9A420DD98D
:1028B000D21A994051EA0C01C3F1200C20FA0CFC09
:1028C00061449840531C40F2FF7CD7E7914041EAB5
:1028D0000C01C2F1200C20FA0CF319439040704710
:1028E000B0FA80F31533202BE0D3202AEED3203A20
:1028F000203B9A4209D9D21A00FA03F141EA0C01AD
:102900000020531C40F2FF7CB8E700FA02F141EAD4
:102910000C0100207047524240F2FF7C1CEA115328
:102920000DD06345DBD0B2EB030C3CBFA1EB0251F1
:1029300070470CF1010221EA035141F4801150EA81
:10294000410CCCD001F0004C352A27DC30B481EAB0
:102950000C01B2F1200309DAC2F12003044601FAA6
:1029600003F5D0402843D1409C400CE0C3F1200245
:10297000450020FA03F418BF44F0010421FA03F0E3
:1029800091400C43002174F1004550F1000051EBDF
:102990000C01244230BC7FF47BAF704761460020BD
:1029A00076E70000C1F30A5340F2FE329B1A14DDB1
:1029B000D3F120034FEAE17208DDC90241EA505128
:1029C00041F00040D84080185040704703F2E13099
:1029D00010B1D24382F000407047002070470000E1
:1029E000C11768B14840401AB0FA80F29040D21C3A
:1029F000C907C2F5846241EA025202EBD0214005C8
:102A00007047000070B44FF0004591EA030F40F1A9
:102A1000B3816B40841A71EB030603D2001BB141F2
:102A2000121973414FF4001C1CEB410F34BF7CEBB7
:102A3000430442E00C0DA4EB1356352E4FDC45EA5F
:102A4000C323DB0A45EAC121C912B6F120050DDD19
:102A500063FA05F6EB4086EA0305124218BF45F01B
:102A60000105C01851F100010CD213E062FA06F51D
:102A7000F2405540F3415A40B340F3405A40801869
:102A8000594107D349085FEA30005FEA350528BF9E
:102A900045F0010501F58011420875F1004250F141
:102AA000000041EB04514E0016F5001F70BC38BF0A
:102AB00070470020090D090570471CEB410F10D22B
:102AC00052EA43060BD0BCEB410F05D80C0DAB43CB
:102AD000661E342EB6DD02E0AB438018594170BC4F
:102AE000704770BC70470000F0B540F2FF7581EA96
:102AF000030C0CF0004C15EA11541DBF15EA1357D6
:102B0000AC42AF42E5E0BC41C1F31301C3F3130390
:102B1000801A994143F4801304D2641E4000494155
:102B200080185941C90241EA5051B1FBF3F603FB49
:102B30001611A2FB0675D7EBC020A94102D2761E62
:102B400080185941C90241EA5051B1FBF3FE03FB21
:102B50001E11A2FB0E75D7EBC020A94103D2AEF126
:102B6000010E80185941890241EA9051760546EAE2
:102B70008E2EB1FBF3F603FB1611A2FB0675D7EB05
:102B80008020A94102D2761E80185941C90241EA2B
:102B900050514EEA060EB1FBF3F603FB1611A2FBF1
:102BA0000675D7EBC020A94102D2761E8018594184
:102BB000C90241EA5051B1FBF3F703FB1711A2FB25
:102BC0000735D3EBC020A94167F100070CBF0042D5
:102BD00047F0010766F3D5274FEA1E31B80814F510
:102BE000806412DDBD0775F1004250EB0E5051EBD1
:102BF000045111F5801F5CBF41EA0C01F0BD4CF09F
:102C00007F6141F0E0410020F0BDBD076D0840EA62
:102C10000E5041F48011D4F10104B4F120060ADA17
:102C2000C4F120060200E04001FA06F3E140184337
:102C3000B24015430EE0342C13DCC6F1200445EA03
:102C400040056D0820FA06F2154321FA06F0A1406E
:102C50000D43002175F1004250F1000051EB0C01D1
:102C6000F0BD00205FEA0C01F0BDCFB992185B41C6
:102C7000B3FA83F704BFB2FA82F6BF190B3FB7F17C
:102C800020062FBF02FA06F3BB40C7F1200622FA46
:102C900006F638BF3343BA401CB1E419641E33E76B
:102CA0007F4231F00041B1FA81F404BFB0FA80F6FE
:102CB000A4190B3CB4F120062FBF00FA06F1A14085
:102CC000C4F1200620FA06F638BF3143A0403C1B71
:102CD0001AE7AC421ABF05EA1357AF4212E050EAB6
:102CE00041061CBF52EA4306BFE750EA410730469F
:102CF00061461CBF41EA0551F0BD52EA430C08BFD2
:102D0000C143F0BD00204FF4001616EB410F98BFF1
:102D100016EB430F08BF16EB410F24BFC14305E07C
:102D200016EB430F0CBF61464CEA0551F0BD0000A5
:102D3000400D491840EA81200CD2490DA1F580616F
:102D4000491C40F0004005DBD1F11F0154BFC840D1
:102D5000C017704700207047014648B1B0FA80F1B3
:102D60008840C91CC1F58461090501EBD0214005EB
:102D70007047000070470000841A71EB030604D20C
:102D80006E40001BB141121973414FF4001C1CEB43
:102D9000410F34BF7CEB430683E00C0DA4EB1356CC
:102DA000362E00F37C80012E45EAC32341DC43EA42
:102DB000525312BFD20292025B08240545EAC12198
:102DC00041EA5051D2EBC020994125D407D1B0FA45
:102DD00080F610FA06F162D00020203608E0B1FA41
:102DE00081F6B140C6F1200220FA02F21143B04050
:102DF0004FEAF474B4EB465434F001064FEA74041D
:102E00000AD8D6F50016760D04F00044F04061FAB9
:102E100006F25040F1404840C00A40EA415021F0DB
:102E2000004128BF5FEA500550F1000044EBD1217A
:102E300035E0DB0A45EAC121C90AB6F120050EDDFD
:102E400042EA0242120CC5F1200603FA06F6EB40F4
:102E500042EA06056D42984161F100010DE062FA17
:102E600006F5F240554063FA06FC82EA0C02F34094
:102E70005A406D42904161EB030111F4801F05D16E
:102E8000641E620502D06D004041494121F4801169
:102E9000430875F1004350F1000041EB045170BC50
:102EA00070471CEB410F15D223F0004352EA430652
:102EB0000BD04FEA4C0CBCEB410F04D80C0D661E36
:102EC000342EB7DDEBE7801A994150EA410608BF7E
:102ED0000021E4E708BF1CEB430F28BF6FF000019F
:102EE000DDE700000000000000000000000000001E
:102EF00000000000000000000000000000000000D2
:102F000000000000000000000000000000000000C1
:102F1000000000000000000F80380FFE380F8038DE
:102F200000000000000000000000000000000000A1
:102F300000000100000600000C0000380000310015
:102F4000000600000C000038000030000000000007
:102F50000000000061800067F807F98000618000D0
:102F600061800061800061800067F807F98000617E
:102F70008000000000000000000001C0E003E0F05D
:102F80000630080418081FFFFE040E080787F00328
:102F900081E000000000000001F000060C000404C5
:102FA00008060C7001F9C0000E00003BE000EC18B0
:102FB000070808040C180003E00000000001E0000E
:102FC00007F003F818041C0804170807E1D003C031
:102FD000E00023B0003C08002008000010000000C2
:102FE0000000000100003100003200001C00000061
:102FF00000000000000000000000000000000000D1
:1030000000000000000000000000000000000000C0
:10301000000000007F0001FFC00780F00C001810C6
:103020000004200002000000000000200002100048
:10303000040C00180780F001FFC0007F00000000B2
:103040000000000000000000000000000000000080
:103050004200006600006600003C0000180003FF0C
:10306000C0001800003C000066000066000042003E
:103070000000000008000008000008000008000030
:10308000080001FFC0000800000800000800000858
:1030900000000800000000000001000031000032C4
:1030A00000001C0000000000000000000000000004
:1030B0000000000000000000000000000800000800
:1030C00000000800000800000800000800000800D8
:1030D00000080000080000080000000000000000D8
:1030E0000000000038000038000038000000000038
:1030F00000000000000000000000000000000000D0
:1031000000000000000600001C00007000018000AC
:103110000E0000380000C0000700001C0000300056
:1031200000000000000000007F8001FFE0038070CD
:103130000600180400080400080600180380700147
:10314000FFE0007F800000000000000000000100A0
:103150000801000801000803FFF807FFF800000855
:10316000000008000008000000000000000000014E
:10317000C03802C05804009804011804021804045E
:1031800018061C1803F81801E0F800000000000001
:1031900000000001C0E003C0F004000804080804B7
:1031A000080806180803F41801E7F00001E0000021
:1031B00000000000000000000300000D00001100EE
:1031C00000610000810803010807FFF80FFFF80005
:1031D00001080001080000000000000000E007FCFA
:1031E000D006080806100806100806100806183849
:1031F000060FF00607C000000000000000000000FD
:103200003F8001FFE0038430020818041008041016
:1032100008041008071810030FF00007C000000092
:1032200000000000000003C00007000006000006C8
:1032300000F80607F806180006E000070000060080
:103240000000000000000001E1E003F7F006341088
:10325000041808041808040C08040C0806161803BF
:10326000F3F001C1E000000000000000F80003FCE2
:10327000300306380402080402080402080404109B
:103280000308F001FFC0007F000000000000000004
:103290000000000000000000000000007038007016
:1032A000380070380000000000000000000000003E
:1032B000000000000000000000000000000000000E
:1032C000301A00301C000000000000000000000068
:1032D00000000000000000000000000800001400D2
:1032E0000022000041000080800100400200200414
:1032F000001008000800000000000000210000216C
:103300000000210000210000210000210000210018
:10331000002100002100002100000000000000004A
:103320000000080008040010020020010040008096
:10333000800041000022000014000008000000008E
:1033400000000003C00004C00004000008003808AA
:103350000F380808380810000C300007E00003C0E0
:1033600000000000000000003F8000FFE0038070CC
:10337000020F1006708804C088048308047F880246
:10338000C09003012000FE4000000800001800016A
:10339000F8003E0801C20007020007E20000FE003C
:1033A000001FC80001F800003800000804000807EA
:1033B000FFF807FFF80408080408080408080408D0
:1033C0000806180803F41801E7F00001E000000007
:1033D000000000003F8001FFE0038070020018043D
:1033E00000080400080400080400100600200780FC
:1033F000C000000004000807FFF807FFF8040008F9
:103400000400080400080400180200100380700182
:10341000FFE0007F8000000004000807FFF807FFBE
:10342000F8040808040808040808040808043E080A
:1034300004000806001801006000000004000807EE
:10344000FFF807FFF804080804080004080004084F
:1034500000043E000600000600000180000000009D
:10346000000000003F8001FFE003807006001804A8
:1034700000080402080402080203F00783F00002B7
:103480000000020004000807FFF807FFF80408081E
:1034900000080000080000080000080004080807F1
:1034A000FFF807FFF8040008000000000000040017
:1034B0000804000804000807FFF807FFF8040008E4
:1034C00004000804000800000000000000000000E4
:1034D00000060000070000010400010400010400D0
:1034E0000307FFFE07FFFC040000040000040000C7
:1034F00004000807FFF807FFF8040C080018000094
:103500003E0004C7800503C80600F8040038040024
:103510001800000804000807FFF807FFF804000877
:103520000000080000080000080000080000080073
:10353000001800006000000004000807FFF8078082
:103540000807FC00007FC00003F80007C0007800F7
:1035500007800807FFF807FFF804000804000807C1
:10356000FFF807000803C00000E000003800001E5C
:10357000000007000001C00400F007FFF80400008D
:10358000000000007F8001FFE00380700600180447
:10359000000804000806001803003001FFE0007F67
:1035A0008000000004000807FFF807FFF804040883
:1035B000040400040400040400040400060C0003D6
:1035C000F80001F000000000000000007F8001FF13
:1035D000E00380700600880400880400C806003CF0
:1035E00003003E01FFE6007F84000000040008079E
:1035F000FFF807FFF8040808040800040C00040F93
:1036000000040BC00610F003F03801E008000008C9
:1036100000000001E0F803F0300630100418080440
:103620001808040C08040C080206180207F00781A9
:10363000E00000000180000600000400000400001B
:1036400004000807FFF807FFF8040008040000045E
:10365000000006000001800004000007FFE007FFF3
:10366000F00400180000080000080000080000082E
:1036700000000804001007FFE0040000040000063A
:10368000000007E00007FE00041FE00001F8000052
:10369000380001E0043E0007C000060000040000FE
:1036A00004000007E00007FFC0041FF80007C00780
:1036B000F80007FF80043FF80007C004F800070087
:1036C0000004000000000004000806001807C0788D
:1036D00005F1C8003E00001F800463E80780F8067B
:1036E0000018040008000000040000060000078025
:1036F0000007E008047C08001FF80007F80018081D
:1037000004E00807000006000004000000000001BB
:1037100000080600380400F80403E8040F08047CDD
:103720000805F00807C00807001804006000000042
:103730000000000000000000000000000000003F4A
:10374000FFFE2000022000022000022000022000D4
:103750000200000000000000000008000007000058
:1037600000C0000038000006000001C0000030006A
:10377000000E00000100000000000000000020001A
:10378000022000022000022000022000023FFFFE73
:103790000000000000000000000000000000000029
:1037A00000000000000800001000003000002000B1
:1037B00000300000100000080000000000000000C1
:1037C00000000100000100000100000100000100F4
:1037D00000010000010000010000010000010000E4
:1037E00001000001000000000000000000200000B7
:1037F0002000001000001000000000000000000089
:1038000000000000000000000000000000F00019AF
:10381000F8001B18002208002608002408002410C5
:10382000003FF8001FF80000080000180000000426
:10383000000007FFF80FFFF0001818001008002024
:1038400008002008003018001FF0000FC000000022
:103850000000000007C0001FF00018300020080022
:103860002008002008003C08001C10000060000038
:10387000000000000000000007C0001FF000381822
:1038800000200800200800200804101007FFF80F8F
:10389000FFF0000010000000000000000000000722
:1038A000C0001FF000123000221800220800220879
:1038B000003208001E10000E200000000000000072
:1038C000200000200800200801FFF803FFF8062070
:1038D000080420080420080720000300000000005E
:1038E00000000000000E000E6E001FF30031B1005A
:1038F00020B10020B1003191001F13002E1E0020C6
:103900000E00300000000004000807FFF80FFFF869
:10391000001008002000002000002008003FF800F0
:103920001FF8000008000000000000000000002058
:1039300008002008002008063FF8063FF8000008AD
:103940000000080000080000000000000000000067
:1039500000000000030000030020010020010020FF
:1039600003063FFE063FFC000000000000000000D0
:1039700000000004000807FFF80FFFF800018800AE
:103980000300002FC00038F8002038002008000095
:103990000800000000000000000004000804000807
:1039A00004000807FFF80FFFF800000800000800F7
:1039B0000008000000000000002008003FF8003F61
:1039C000F8001008002000003FF8003FF800100841
:1039D000002000003FF8003FF80000080000000051
:1039E0002008003FF8003FF80010080010000020F9
:1039F00000002008003FF8001FF800000800000049
:103A00000000000007C0000FF00018300030080070
:103A10002008002008003008001830000FF00007D0
:103A2000C0000000000000002001003FFF003FFF39
:103A30000010110020090020080020080030380084
:103A40001FF0000FC00000000000000007C0001FB2
:103A5000F00038180020080020080020090010118C
:103A6000001FFF003FFF00000100000000200800D1
:103A70002008002008003FF8003FF8000808001068
:103A80000800200800200000300000300000000086
:103A9000000000000000000C78001E180033080031
:103AA00023080021080021880021980030F0003808
:103AB0006000000000000000200000200000200046
:103AC00000FFF003FFF80020080020080020080095
:103AD0000030000000000000000000002000003F57
:103AE000F0007FF800001800000800000800201017
:103AF000003FF8007FF00000100000000000000010
:103B00002000003000003C00003F800023F0000057
:103B100078000070002380003C000030000020008E
:103B2000002000003C00003FE00023F80000E0001F
:103B30002700003E00003FE00021F80001E0003EC9
:103B40000000200000000000200800200800383895
:103B5000003E680027800003C8002CF800383800B9
:103B600020180020080000000000000020000030A5
:103B700003003C01003F830023EC00007000238021
:103B8000003C0000200000200000000000000000B9
:103B900000000038080020380020F80023E8002F3B
:103BA00088003E080038080020180000700000005F
:103BB0000000000000000000000000000000000005
:103BC00008000014001FF7FC30000620000200006F
:103BD00000000000000000000000000000000000E5
:103BE000000000000000FFFFFF00000000000000D8
:103BF00000000000000000000000000000002000A5
:103C0000023000061FF7FC0014000008000000004E
:103C1000000000000000000000000000000000188C
:103C20000000600000400000400000200000100084
:103C3000000800000400000400000C000010000058
:103C4000DFF8501408807047DFF8B8160880704716
:103C5000DFF840241080DFF8AC2611807047DFF8D1
:103C600038040089DFF82C140880704770B5040010
:103C70000D00DFF824647089FFF7E2FF200080B2B6
:103C8000000AFFF7E1FF04F0FF00FFF7DDFF20006F
:103C900080B2401C001280B2FFF7D6FF601C80B2D9
:103CA000FFF7D2FFB089FFF7CBFF280080B2000AF0
:103CB000FFF7CAFF05F0FF00FFF7C6FF280080B23C
:103CC000401C001280B2FFF7BFFF681C80B2FFF7F4
:103CD000BBFFFFF7C4FF70BD38B504000D0029001D
:103CE00089B2200080B2FFF7C1FFDFF8E00700884B
:103CF000FFF7AAFF31BD70B4DFF89833DFF89843BF
:103D000065891D80DFF8FC550600B6B2360A2E80A4
:103D100000F0FF062E800600B6B2761C36122E800A
:103D2000461C2E80A6891E800E00B6B2360A2E8052
:103D300001F0FF062E800E00B6B2761C36122E80E1
:103D40004E1C2E8024891C802A8070BC704780B550
:103D500094B000200090DFF87807016851F002016C
:103D60000160006810F002000090009801200890A7
:103D70000120099001200A9003200B9008A9DFF888
:103D8000540700F045FCDFF850075FF02041016068
:103D9000DFF848174160062181600021C1600021E1
:103DA000016110214161002181610021C161002177
:103DB00041624FF4805181620021C1624FF4804121
:103DC000016300214163002181635FF48011C163BD
:103DD0000F210D9100210E913C210F910021139193
:103DE00000210491092101910021029108210391F0
:103DF0000021079101AA0DA900F04EFD642000F0FA
:103E000079FDF920FFF71CFF0020FFF71DFF0820B8
:103E1000FFF71AFFC020FFF713FF1920FFF714FF69
:103E20001A20FFF711FFC120FFF70AFF4520FFF717
:103E30000BFF0020FFF708FFC220FFF701FF332030
:103E4000FFF702FFC520FFF7FBFE0020FFF7FCFE97
:103E50002820FFF7F9FEB120FFF7F2FEA020FFF7C0
:103E6000F3FE1120FFF7F0FEB420FFF7E9FE022079
:103E7000FFF7EAFEB620FFF7E3FE0020FFF7E4FEBF
:103E80004220FFF7E1FE3B20FFF7DEFEB720FFF701
:103E9000D7FE0720FFF7D8FEE020FFF7D1FE1F2056
:103EA000FFF7D2FE2520FFF7CFFE2220FFF7CCFE42
:103EB0000B20FFF7C9FE0620FFF7C6FE0A20FFF71A
:103EC000C3FE4E20FFF7C0FEC620FFF7BDFE39201F
:103ED000FFF7BAFE0020FFF7B7FE0020FFF7B4FEA1
:103EE0000020FFF7B1FE0020FFF7AEFE0020FFF735
:103EF000ABFE0020FFF7A8FEE120FFF7A1FE1F2088
:103F0000FFF7A2FE3F20FFF79FFE3F20FFF79CFE3A
:103F10000F20FFF799FE1F20FFF796FE0F20FFF7F7
:103F200093FE4620FFF790FE4920FFF78DFE3120DB
:103F3000FFF78AFE0520FFF787FE0920FFF784FEC2
:103F40000320FFF781FE1C20FFF77EFE1A20FFF7FB
:103F50007BFE0020FFF778FEF120FFF771FE362090
:103F6000FFF772FE0420FFF76FFE0020FFF76CFEE4
:103F70003C20FFF769FE0F20FFF766FE0F20FFF7DA
:103F800063FEA420FFF760FE0220FFF75DFEF22033
:103F9000FFF756FE1820FFF757FEA320FFF754FE49
:103FA0001220FFF751FE0220FFF74EFE3220FFF7EE
:103FB0004BFE1220FFF748FEFF20FFF745FE3220A0
:103FC000FFF742FE0020FFF73FFEF420FFF738FE28
:103FD0004020FFF739FE0020FFF736FE0820FFF7EC
:103FE00033FE9120FFF730FE0420FFF72DFEF8206E
:103FF000FFF726FE2120FFF727FE0420FFF724FE0F
:104000003620FFF71DFE4820FFF71EFE3A20FFF77F
:1040100017FE5520FFF718FE1120FFF711FEC820EC
:1040200000F068FC2920FFF70BFE1B482A21418184
:104030002B2181812C210181012181714FF4A071FB
:1040400001804FF4F071418008213620FFF700FE17
:104050000120DFF88C1408604FF6FF7000F002F8C2
:1040600015B000BD38B5040000250B4841884B1E33
:104070009BB20088421E92B20021002000F0EEF9AF
:104080000020B0F5163F04D2DFF878120C80401CF7
:10409000F7E731BD7E00006C8C0800202DE9FF4F52
:1040A00083B000250026BDF81410BDF80C00091AD5
:1040B0000091BDF81800BDF81040041BBDF80C704D
:1040C000BDF810800098012802DB5FF001090AE0CA
:1040D0000098002802D15FF0000904E05FF0FF398A
:1040E000009840420090012C02DB5FF0010A07E0DB
:1040F000002C02D15FF0000A02E05FF0FF3A644258
:104100000098844202DA0098019000E001945FF088
:10411000000B0198401C594689B288421ADB404680
:10412000010089B2380080B2FFF7D6FD009845192A
:10413000A6190198A84203DA01982D1A19EB07076E
:104140000198B04203DA0198361A1AEB08081BF1FD
:10415000010BDEE707B0BDE8F08FF8B504000D00F5
:1041600016001F002B009BB2320092B2290089B2C8
:10417000200080B2FFF792FF3B009BB2220092B278
:10418000290089B2200080B2FFF788FF3B009BB274
:10419000320092B2390089B2200080B2FFF77EFF70
:1041A0003B009BB2320092B2290089B2300080B24B
:1041B000FFF774FFF1BD2DE9F84F05000E001F0059
:1041C0000A9CADF802603800C0B2082190FBF1F300
:1041D00001FB1300002801D0012000E0002039007D
:1041E000C9B2082391FBF3FA10EB0A0A3800C0B2F7
:1041F000022190FBF1F000FB0AFAB2F120008DF8E9
:1042000000005FF0000B58465146C0B2C9B2884268
:1042100074D23800C0B20C280CD1DFF8C8129DF857
:1042200000200C20424301EB02005946C9B2405C19
:10423000804620E03800C0B210280AD1DFF8A8027A
:104240009DF80010090108445946C9B2405C8046F7
:1042500011E03800C0B218280CD1DFF890129DF898
:1042600000202420424301EB02005946C9B2405CC1
:10427000804600E042E0002081464846C0B208285F
:1042800039DA5FEA086009D5DFF8400202883100B8
:1042900089B2280080B2FFF72EFD0CE02000C0B2EA
:1042A000002808D1DFF848020288310089B22800CE
:1042B00080B2FFF720FD5FEA4808761CDFF8341271
:1042C00030004A8880B2904218D2320092B2BDF8D3
:1042D0000200121A3800C0B2824209D1BDF80200B1
:1042E00006006D1C2800098880B2884206D202E0D0
:1042F00019F10109C1E71BF1010B84E7BDE8F18F5A
:10430000000000008000006C030001200A00511E24
:10431000D2B2002A03D01A00D2B25043F6E7704757
:104320002DE9F84F05008B4616001F000A9C5FF030
:1043300000095FF0000A50463900C0B2C9B2884295
:1043400051D2B7EB0A00411EC9B20A20FFF7DCFFC9
:10435000B6FBF0F00A21B0FBF1F201FB120080463F
:104360004846C0B2002823D15046C0B23900C9B275
:10437000491E88421CDA4046C0B2002816D10020EF
:1043800000902300DBB22022594689B22000C0B23F
:104390005FF0020C90FBFCFC5046C0B200FB0CFC32
:1043A0001CFA85F080B2FFF706FF19E00120814674
:1043B000002000902300DBB218F13002D2B259463F
:1043C00089B22000C0B25FF0020C90FBFCFC5046AA
:1043D000C0B200FB0CFC1CFA85F080B2FFF7EBFECC
:1043E0001AF1010AA7E7BDE8F18F2DE9FC470500A6
:1043F0000E0091469A460A9C0B9FA84615EB0909A8
:1044000016EB0A0A38787F2826DA3878202823DB4A
:104410002800494680B289B2884204D34046C0B2DF
:10442000050056FA84F63000514680B289B28842BF
:1044300012D2002000902300DBB23A78310089B21A
:10444000280080B2FFF7B7FE2000C0B2022190FB27
:10445000F1F045197F1CD5E7BDE8F3872DE9F04160
:1044600004000D0016001F00DFF88880B8F80A006D
:10447000FFF7E6FB200080B2000AFFF7E5FB04F03F
:10448000FF00FFF7E1FB300080B2000AFFF7DCFB22
:1044900006F0FF00FFF7D8FBB8F80C00FFF7D0FBE1
:1044A000280080B2000AFFF7CFFB05F0FF00FFF7FE
:1044B000CBFB380080B2000AFFF7C6FB07F0FF0015
:1044C000FFF7C2FBFFF7CBFBBDE8F08144090020FA
:1044D0003038024000040240F4050020040100A02E
:1044E00080824042609E000870980008E42E000818
:1044F000BC0000208C08002070B402001300B5EE50
:10450000400AF1EE10FA06D52D201070FFEE000AD9
:1045100020EE200A521CFDEEC00A10EE901A002474
:104520000800002804D0641C0A2590FBF5F0F8E789
:10453000002901D101200400601E00280BD40A25A7
:1045400091FBF5F605FB161530351554401E0A256E
:1045500091FBF5F1F1E702EB04002E220270FDEE73
:10456000C00AF8EEE00A70EE600A0025B0EE601AAC
:10457000FDEEC11AF8EEE11AB4EE611AF1EE10FA8E
:1045800007D06D1C072D04DAF2EE041A21EE211A71
:10459000EEE70022AA4210DAB2EE041A60EE810AB7
:1045A000BDEEE01AF8EEC11A70EEE10A401C11EE01
:1045B000106A30360670521CECE7421C0020107066
:1045C000180070BC70472DE9F0412DED028B86B0CC
:1045D00005000E0017009846B0EE408A0E9C02A817
:1045E000B0EE480AFFF788FF02A801902000C0B291
:1045F000009043469BB23A0092B2310089B2280043
:1046000080B2FFF7F2FE06B0BDEC028BBDE8F08190
:104610002DE9F8410023002400260025102D80F00C
:10462000FD80012717FA05F213000A681A401400EA
:104630009C4240F0F1804A68022A02D04A68122A5D
:104640001FD12A00D20800EB8202D2F820C05FF00E
:104650000F0E15F00702D2B292001EFA02FE3CEADB
:104660000E0CD1F810E015F00702D2B292001EFA3B
:1046700002FE5EEA0C0C66462A00D20800EB8202BB
:104680001662D0F800C05FF0030E2A00D2B25200CA
:104690001EFA02F23CEA020C91F8048018F00308BA
:1046A0002A00D2B2520018FA02F858EA0C0CC0F8EC
:1046B00000C04A68012A08D04A68022A05D04A6820
:1046C000112A02D04A68122A1BD186682A00D2B267
:1046D00052001EFA02F29643D1F80C802A00D2B2A0
:1046E000520018FA02F858EA060686604268AF409F
:1046F000BA434F68C7F30017AF403A439446C0F837
:1047000004C0C6682A00D2B252001EFA02FE36EA7F
:104710000E068F682A00D2B2520097403E43C66010
:104720004A68D20078D500220092DFF8302117685D
:1047300057F480471760126812F480420092009A82
:10474000DFF81CC12A0092085CF822705FF00F0E9F
:1047500015F00302D2B292001EFA02FE37EA0E07EB
:10476000404A904201D1002623E03F4A904201D1C5
:1047700001261EE03D4A904201D1022619E03C4A42
:10478000904201D1032614E03A4A904201D1042616
:104790000FE0394A904201D105260AE0374A90429B
:1047A00001D1062605E0364A904201D1072600E0F5
:1047B0000826F6B215F00302D2B2920096403743B3
:1047C0002A0092084CF822702E4E3268A243D1F88B
:1047D00004C05FEACC3C00D5224332602A4F3E68D9
:1047E000A643D1F804C05FEA8C3C00D526433E6066
:1047F000264F3A68A243D1F804C05FEACC2C00D51A
:1048000022433A60224F3E68A643D1F804C05FEAD3
:104810008C2C00D526433E606D1CFFE6BDE8F1817F
:104820001300DBB2002B03D00B009BB2836103E0CB
:104830000B009BB21B048361704710B50400154840
:104840000168220092B2114206D0210089B20160B3
:10485000200080B200F049F910BD00004438024049
:1048600008380140000002400004024000080240F5
:10487000000C0240001002400014024000180240E8
:10488000001C0240003C0140043C0140083C014047
:104890000C3C0140143C014070B504000D001600B2
:1048A000002C01D1012024E094F84900002805D112
:1048B000002084F84800200000F0C9F914F1080134
:1048C000206800F0D9F9A2682900206800F001FAF8
:1048D000236BA2683100606800F01EFA2068A168AE
:1048E00050F8210050F001002168A26841F8220030
:1048F000002070BD70B5040000F034FA05002600F9
:1049000016F1010F02D004480078361800F02AFA98
:10491000401BB042FAD370BDBE0000202DE9F0412B
:1049200086B06846142100F023FA002005907648EE
:10493000016851F080010160016811F0800105916A
:10494000059900210591016851F004010160016899
:1049500011F004010591059900210591016851F0BC
:1049600001010160016811F0010105910599002123
:104970000591016851F002010160016811F0020126
:104980000591059900210591016851F02001016010
:10499000016811F020010591059900210591016838
:1049A00051F010010160016811F0100105910599A5
:1049B00000210591016851F008010160016811F0C2
:1049C00008010591059900210591016851F0400108
:1049D0000160006810F040000590059840F2012841
:1049E0004A4C002241462000FFF71AFF484D0022A2
:1049F0004FF400412800FFF713FF40F2C160009020
:104A00000020019000200290424E69463000FFF7DE
:104A1000FFFD4FF49F7000903F4F019700200290E0
:104A200069463000FFF7F4FDCDF8008001200190C9
:104A3000002002900020039069462000FFF7E8FD67
:104A40004FF40040009001200190002002900020CF
:104A5000039069462800FFF7DBFD4FF400600090EB
:104A60002E4801900020029069463000FFF7D0FDEB
:104A70004FF480700090019700200290694620005A
:104A8000FFF7C6FD00220021072000F0EFF9072004
:104A900000F001FA00220021082000F0E7F90820C8
:104AA00000F0F9F900220021092000F0DFF90920C7
:104AB00000F0F1F9002200210A2000F0D7F90A20C5
:104AC00000F0E9F900220021172000F0CFF91720AB
:104AD00000F0E1F900220021282000F0C7F9282089
:104AE00000F0D9F906B0BDE8F08110B5040020004F
:104AF00080B2B0F5807F05D109480079002801D047
:104B000000F005FB10BD00003038024000040240F8
:104B10000000024000080240000021100000311097
:104B2000B407002000B587B068461C2100F020F9CA
:104B300049485FF020410160484941600621816099
:104B40000021C160002101611021416100218161CA
:104B50000021C16100210162002141624FF48051B6
:104B600081620021C16200210163002141630021B3
:104B70008163002141640F2100910F210191FF21E8
:104B800002910F210391102104911121059100211F
:104B9000069100226946FFF77FFE002801D000F051
:104BA00069FF07B000BD10B586B06846142100F05B
:104BB000DFF82B490868002847D101200860002051
:104BC00005902848016851F001010160006810F06B
:104BD0000100059005984FF4805400940220019044
:104BE00000200290032003900C20049069461E4888
:104BF000FFF70EFD4FF6807000900220019000201C
:104C00000290032003900C20049069461748FFF798
:104C1000FFFC4CF2337000900220019000200290C3
:104C2000032003900C20049069461148FFF7F0FC24
:104C300000940220019000200290032003900C2099
:104C4000049069460B48FFF7E3FC06B010BD10B5B1
:104C50000400FFF7A8FF10BDA4050020040100A078
:104C600018090020383802400014024000100240A9
:104C7000000C02400018024030B402000024086812
:104C800052F82030354803404D6888680543C868AD
:104C90000543086905434869054388690543C869B0
:104CA0000543086A0543486A0543886A0543C86A9C
:104CB0000543C86B0543086B05432B4388680828E8
:104CC00001D153F04003086842F82030002030BC86
:104CD000704770B40300002403EB8200456815F0B0
:104CE00040450E68486856EA0016886856EA00266D
:104CF000C86856EA00460869401E56EA00564869E8
:104D0000801E56EA006688690643354303EB82003D
:104D10004560002070BC7047F0B404000026B3F575
:104D2000804F14D154F822500D4805400F68486850
:104D300057EA0017886857EA0027C86857EA00470B
:104D4000886907433D432E0044F8226003E07FF06A
:104D5000704044F822000020F0BC70478000F0FF53
:104D60000000F0CF01480068704700BF3409002000
:104D7000002200F081BE000010B410F00703DFF83D
:104D8000304122684FF6FF010A40DFF8281151EA4E
:104D900003210A43226010BC7047DFF81401006849
:104DA000C0F302207047010049B2002909D4012252
:104DB00010F01F018A40404903005BB25B0941F8D3
:104DC0002320704710B4020052B2002A05D40A0111
:104DD0003A4B040064B21A5508E00A01384B04004B
:104DE00064B214F00F04234403F8042C10BC704781
:104DF00070B4030013F00704D4F10700052801D3B1
:104E0000042001E0D4F10700251D072D01D2002563
:104E100000E0E51E012616FA00F0401E0140A94000
:104E200016FA05F56D1E2A401143080070BC704744
:104E300010B50400601EB0F1807F01D301200EE0A8
:104E4000601E204908600F215FF0FF30FFF7BAFFB6
:104E500000201D49086007201C490860002010BD83
:104E600010B504002000FFF787FF10BD2DE9F041C9
:104E700004000D0016000027FFF78FFF8046320068
:104E800029004046FFF7B4FF0100200040B2FFF7C1
:104E900099FFBDE8F08110B50400200040B2FFF793
:104EA00082FF10BD10B504002000FFF7C1FF10BD48
:104EB0000CED00E00000FA0500E100E000E400E095
:104EC00018ED00E014E000E018E000E010E000E081
:104ED0002DE9F8430400002000F021FA00F05FFC07
:104EE000002804D00020DFF85019087188E0002C59
:104EF00005D0DFF8480921000F22FDF70FFADFF88F
:104F00003859DFF83C09A861DFF838796F61DFF8BC
:104F10003809E860DFF83489C5F80880DFF81C99A3
:104F200099F8030000F0D7F999F8040000F07CFA32
:104F300099F8050000F08FFA99F8020000F0D2FA13
:104F400099F8060010F5166000F09DFA99F8000037
:104F500000F0A4FA95F82000801EC0B200F05CFAC0
:104F600099F8070000F02CFA042000F08BFB0026D3
:104F70000021062909DADFF8D808405C002802D0B1
:104F8000012088400643491CF3E73000C0B200F01E
:104F90002DFA99F8070000F05FFB95F820204146B4
:104FA000380000F083FD002804D10120DFF8A418A8
:104FB000087003E00020DFF89C18087095F82010B6
:104FC000404600F0D0FA95F820203900002000F08B
:104FD000BDFA012000F0C0F901224FF40071DFF8A2
:104FE0007808FFF71DFC99F80100002802D0022084
:104FF00000F095F900F07EFB00F090FA0120287196
:10500000BDE8F183F8B504000D000026002000F093
:10501000A3F900F0FCFB00F081FA00F06BFBDFF875
:105020001878FC60DFF82C08007800280BD1DFF836
:105030000C08807B002806D097F82020DFF80C1899
:10504000002000F083FADFF8F407807B002806D008
:1050500028000100C9B2200000F0AAFA05E02800EB
:105060000100C9B2200000F0BFFA3D7401224FF4E4
:105070000071DFF8E407FFF7D3FB3000C0B2F2BDE8
:105080002DE9F04705000E001400012000F064F93E
:105090005FF0FF3700F03DFA8046C8F34209B9F1EE
:1050A000070F2ED000F069FA3070DFF88CA7307847
:1050B0008AF81C00002C04D084F8009020788AF82C
:1050C0001D003078212814DA3178280000F0A8FA81
:1050D000CAF8185000F028FA00F01BFA8046C8F30E
:1050E0004200012802D1002007000AE00120070049
:1050F00007E00020307000208AF81C007FF00100DB
:10510000070000F011FA3800C0B2BDE8F08738B5EA
:1051100000F0FFF904002000C0B2C0F380100028A6
:1051200009D00320DFF834170870DFF8340701785E
:10513000491C017059E02000C0B2C0F340100028A3
:1051400030D00220DFF81417087000F071FB00F077
:10515000F1F9DFF80007007800280DD1DFF8DC0650
:10516000807B002808D0DFF8D00690F82020DFF8F8
:10517000D416002000F0EAF900F09AFADFF8D856C9
:1051800000224FF400712800FFF74AFB012000F0D5
:10519000E3F800F03CFB01224FF400712800FFF718
:1051A0003FFB22E02000C0B2C0F3001000281CD05A
:1051B0000420DFF8A816087000F03AFB00F0C0F9F0
:1051C00000F076FADFF8905600224FF400712800C4
:1051D000FFF726FB012000F0BFF800F018FB0122CA
:1051E0004FF400712800FFF71BFB31BD2DE9F84398
:1051F00004000D002F00FFB2A046DFF85066B14654
:105200003A0041464846FDF789F8DFF82C0680F859
:1052100020502A00D2B23100DFF8280600F046FC08
:10522000002804D10120DFF82C16087003E00020CC
:10523000DFF820160870A91EC9B2300000F093F9FB
:10524000BDE8F1832DE9F84306000C00150030009D
:10525000C0B2022808DB2178DFF8E8253300DBB292
:1052600005204343D1540FE02F00FFB2A046DFF8E2
:10527000D4153200D2B20520424301EB02093A00B4
:1052800041464846FDF74AF82A00D2B2DFF8BC157D
:10529000DFF8B00500F00AFC002804D10120DFF897
:1052A000B415087003E00020DFF8A815087001208D
:1052B000DFF89C153200D2B288540120B040C0B251
:1052C00000F094F82A00D2B221003000C0B200F001
:1052D0003DF9BDE8F18370B50400002000F054FAF8
:1052E00005002E0016F0F3062000C0B2002804D0FE
:1052F000022801D004D306E005E056F0080602E0DB
:1053000056F00C06FFE728003100C0B2C9B288424F
:1053100004D03100C9B2002000F011FA70BD38B5D8
:105320000400002000F030FA05002800C0B210F0A0
:1053300002002100C9B288420DD02000C0B202286C
:1053400002D155F0020501E015F0FD052900C9B2B2
:10535000002000F0F4F931BD70B50400002000F029
:1053600013FA05002800C0B210F001002100C9B2F4
:10537000884224D0DFF8E06400224FF4007130004E
:10538000FFF74EFA00F043FA2000C0B2002807D021
:1053900055F001052900C9B2002000F0D0F90EE057
:1053A00015F0FE052900C9B2002000F0C8F901225D
:1053B0004FF400713000FFF733FA00F028FA70BDA7
:1053C00038B50400012000F0DFF905002900C9B25A
:1053D0002000C0B201402000C0B2814205D0254368
:1053E0002900C9B2012000F0AAF931BD38B5040086
:1053F000022000F0C9F905002900C9B22000C0B29E
:1054000001402000C0B2814205D025432900C9B225
:10541000022000F094F931BD10B504002100C9B29A
:10542000032000F08CF910BD70B50400042000F0DA
:10543000ABF90600350015F00F0555EA04153000EC
:105440002900C0B2C9B2884204D02900C9B20420E0
:1054500000F075F970BD70B50400042000F094F9F7
:105460000600350015F0F00514F00F00054330007C
:105470002900C0B2C9B2884204D02900C9B20420B0
:1054800000F05DF970BD10B504002000B0F16001BE
:1054900011F07F01052000F052F910BD70B5040035
:1054A000062000F071F905002E0016F0D706200046
:1054B000C0B2002803D0022805D003D306E056F07E
:1054C000200603E002E056F00806FFE7280031005E
:1054D000C0B2C9B2884204D03100C9B2062000F07F
:1054E0002EF970BD70B50400062000F04DF90600DD
:1054F000350015F0F80555EA440530002900C0B222
:10550000C9B2884204D02900C9B2062000F017F9B8
:1055100070BD80B5072000F037F902BD80B570215D
:10552000072000F00CF901BD80B54021072000F0F4
:1055300006F901BD80B52021072000F000F901BD6A
:1055400080B51021072000F0FAF801BD70B5040005
:105550000D0016003200D2B2290014F10A00C0B2C8
:1055600000F0CEF870BD38B504000D002A00D2B2AC
:105570002100102000F0C4F831BD1CB560208DF86A
:10558000040000F030F9B74C322000900123B64AF5
:1055900001A9200000F092FC322301220DF1050147
:1055A000200000F0D3FB00F028F99DF8050016BD9F
:1055B0007CB504000D00A0208DF8040000F013F964
:1055C000A84E322000900123A74A01A9300000F024
:1055D00075FC32232A00D2B292B22100300000F0D2
:1055E000E0FA00F00AF973BD7CB504000D00B020AC
:1055F0008DF8040000F0F7F89A4E32200090012355
:10560000994A01A9300000F059FC32232A00D2B295
:1056100092B22100300000F0C4FA00F0EEF873BD41
:105620007CB504000D0061208DF8040000F0DBF86B
:105630008C4E3220009001238B4A01A9300000F0EB
:105640003DFC32232A00D2B292B22100300000F099
:105650007DFB00F0D2F873BD38B504001C2000F0CB
:1056600093F805002900C9B22000C0B20140200013
:10567000C0B2814205D025432900C9B21C2000F0E8
:105680005EF831BD38B504001D2000F07DF805003E
:105690002900C9B22000C0B201402000C0B281423E
:1056A00005D025432900C9B21D2000F048F831BDBE
:1056B000E0B5E1208DF8040000F095F8322000906C
:1056C0000123694A01A9674800F0F8FB00F095F84A
:1056D00007BDE0B5E2208DF8040000F084F8322028
:1056E00000900123604A01A95E4800F0E7FB00F04A
:1056F00084F807BD80B5FFF7ECFFFFF7D9FF01BDC8
:10570000FEB504000D00160054F020008DF80400D2
:1057100000F069F8534F322000900123524A01A94A
:10572000380000F0CBFB32233200D2B292B2290013
:10573000380000F036FA00F060F80020FEBD13B526
:105740000400012201A92000C0B2FFF7D9FF16BD55
:10575000FEB504000D0016008DF8044000F043F87B
:10576000404F3220009001233F4A01A9380000F049
:10577000A5FB32233200D2B292B22900380000F0E9
:10578000E5FA00F03AF8F7BD1CB5040001226946BD
:105790002000C0B2FFF7DCFF9DF8000016BDE0B5A9
:1057A000032202A91020FFF7D3FF68462F490A6899
:1057B0000260032269461020FFF7A2FF032201A91D
:1057C0001020FFF7C5FF032202A91020FFF798FF62
:1057D000032201A9684600F069F9002801D00120E0
:1057E00000E000200EBD80B500224FF400412048AB
:1057F000FFF716F800F00BF801BD80B500F007F8D0
:1058000001224FF400411A48FFF70AF801BD81B0A8
:10581000002000900098142804DA00980098401C9A
:105820000090F7E701B070470120124908707047F7
:105830000020104908707047B407002024000020A1
:10584000D807002020080020FC070020E8080020DE
:10585000F00800204C090020000402404909002003
:105860004B0900204C0500204D090020F4A500083C
:10587000000002404A0900201CB500F00DFD00F0B8
:1058800041F8FFF74BF800F021FD00F047FD00F074
:10589000E9FD00F061FEFFF745F900F017FF6749E9
:1058A000674800F073FF68466649D1E90023C0E904
:1058B0000023052269460020FFF7C4FC0521684645
:1058C000FFF794FC0020FFF703FBFEF740FA5E4C65
:1058D000200000F0CAFF05225C49200001F048F9D1
:1058E00001205B49086000F05FFF01F021FC59488E
:1058F0000168012903D10021016001F0D9FC01F008
:1059000055FEF0E780B592B006A83021FFF730FAD7
:1059100001A81421FFF72CFA002000904E480168DE
:1059200051F080510160006810F0805000900098A4
:10593000002000904948016851F4804101600068EE
:1059400010F48040009000980220069001200990F9
:1059500010200A9002200C9000200D9008200E903C
:10596000A8200F90022010900420119006A801F0AA
:1059700059FE002801D000F07DF80F200190022090
:105980000290002003904FF4A05004904FF48050F8
:105990000590052101A802F005F8002801D000F0CB
:1059A00069F813B000BD2E490888401C088008889B
:1059B000052290FBF2F302FB1300002802D1012024
:1059C000284A106008880A2290FBF2F302FB1300B9
:1059D000002802D10120244A106008884FF4FA728E
:1059E00090FBF2F302FB1300002802D10120194AB8
:1059F000106008884FF47A7290FBF2F302FB1300F8
:105A0000002803D119480268521C0260088842F23B
:105A10001072904201D100200880704770B4036872
:105A2000021D1468002C07D414680A2C04DA104CE8
:105A30001568566844F8256070BC70473C07002024
:105A4000CC060020D4A50008440600209C080020B5
:105A5000280900202C090020403802400070004036
:105A60004609002024090020F80800202009002011
:105A70008C0700207047000000B500BF1300964659
:105A80009446103928BFA0E80C50FAD85FEA417C50
:105A900028BF0CC048BF40F8042BC90728BF20F816
:105AA000022B48BF00F8012B00BD000003000020BE
:105AB00013F0030F09D0521E22BF13F8010B11F887
:105AC00001CBB0EB0C00F3D0704711F0030F14D1F1
:105AD000121F22BF53F8040B51F804CB6045F7D0D6
